:100000000C9489020C943A1D0C94D0020C94D002EA
:100010000C94D0020C94D0020C94D0020C94D00218
:100020000C94D0020C94D0020C94CA240C949C25FD
:100030000C94FA1F0C94D0020C94D0020C94D002B1
:100040000C94D0020C94D0020C94D0020C94D002E8
:100050000C94D0020C946F200C94D0020C94D0021B
:100060000C94D0020C94D0020C94D0020C94D002C8
:100070000C94D0020C94D0020C94D0020C94D002B8
:100080000C94D0020C94D0020C94D0020C94D002A8
:100090000C94D0020C94D0020C94D0020C94D00298
:1000A0000C94D0020C94D0020C94D0026705670522
:1000B00099059905E6050406250725070F06A406F8
:1000C000B506B5061507250725071E07C507C50789
:1000D000D707D707CE07D707D707D707C507C5075D
:1000E000D307D707D707D307092630262827302676
:1000F00028277C269F262827F62605271900130087
:100100000F000600090015681164176116620700E8
:100110001D00057410000A001A0000000000000015
:1001200029432C4100000000000000002B420D007C
:100130001C00120018000E000B680C6408610462B9
:10014000340014003374370036001B000000000038
:1001500000004C462A440000000000000000284532
:1001600000000000000000000000E300E200E000EA
:10017000E10000000000E6000000000000000000B8
:10018000000000000000010000000000000000006E
:1001900000007A007B007C007D001C014F005200B3
:1001A0005100500039004D004B004E004A004900FC
:1001B0000000000000004C002A00000000000000C9
:1001C0000000280000000000000000000000E30024
:1001D000E200E000E10000000000E6000000000096
:1001E000000000000000000000000000000000000F
:1001F0000000000001007A007B007C007D001C11E3
:10020000F000ED00EE00EF000000FC00F900FA0045
:10021000FB000000000000000000F200F3000000FE
:10022000000000000000F1000000000000000000DD
:100230000000E300E200E000E10000000000E60052
:1002400000000000000000000000000001000000AD
:10025000000000000000000000000000000000009E
:1002600000000000AB00A900AA00AC0000000000E4
:100270000000000000000000000000000000A800D6
:10028000AE000000000000000000AD002F002400C0
:1002900025002600300038002100220023002E0017
:1002A00035001E001F00200031000000000000008B
:1002B0003700270000000000000000002D00005C57
:1002C0000000000000000000E300E200E000E100A8
:1002D00000000000E6000000000000000000000038
:1002E000000000000100000000000000000000000D
:1002F0002F022402250226023002380221022202A5
:1003000023022E0235021E021F02200231020000CB
:10031000000000002602270200000000000000008C
:100320002D02005C0000000000000000E300E2007D
:10033000E000E10000000000E60000000000000016
:1003400000000000000000000000000000000000AD
:10035000000001004500400041004200460044000A
:100360003D003E003F00470043003A003B003C0098
:10037000480000000000000065002C0000000000A4
:10038000000000002B00005C0000000000000000E6
:10039000E300E200E000E10000000000E6000000F1
:1003A000000000000000000000000100000000004C
:1003B00000000000000000003C03680061006E00C7
:1003C0006400770069007200650064002F0064001B
:1003D00061006300740079006C005F006D006100D3
:1003E0006E00750066006F0072006D002F00340013
:1003F0007800350000000E037400730068006F0081
:100400007200740000000403090409023B000201A9
:1004100000A0FA09040000010301010009211101F3
:1004200000012240000705810308000A09040100B9
:100430000103000000092111010001227B000705D2
:10044000820320000A12010002000000084D44351A
:100450003401000102000105010902A10185020920
:1004600001A1000509190129081500250195087544
:100470000181020501093009311581257F95027539
:1004800008810609381581257F95017508810605C3
:100490000C0A38021581257F950175088106C0C0B8
:1004A00005010980A101850319012AB7001501265C
:1004B000B700950175108100C0050C0901A10185E7
:1004C0000419012AA002150126A0029501751081C8
:1004D00000C005010906A101050719E029E715007B
:1004E00025019508750181029501750881010507AF
:1004F000190029FF150026FF0095067508810005E3
:100500000819012905950575019102950175039159
:1005100001C011241FBECFEFDAE0DEBFCDBF04B6AD
:1005200003FE27C08091A9029091AA02A091AB027C
:10053000B091AC028730904BA740B04BD1F41092F1
:10054000A9021092AA021092AB021092AC0214BE41
:1005500084B7877F84BF0FB6F894A8958091600018
:10056000886180936000109260000FBEE0E0F8E3C5
:10057000099511E0A0E0B1E0ECEEFFE402C00590C7
:100580000D92A63AB107D9F722E0A6EAB1E001C080
:100590001D92A93AB207E1F70E944D160C94F42778
:1005A0000C94000081E0089581E008950C94D40239
:1005B00008950C94D8021F93CF93DF9300D000D0FE
:1005C0001F92CDB7DEB749835A836B833091A80160
:1005D00089819A81311114C0662359F0222349F090
:1005E0000E946B09182F682F89819A810E94120935
:1005F00003C00E943E09182F69817A81812F04C0AF
:100600000E946B0969817A810F900F900F900F9073
:100610000F90DF91CF911F910C942010FC01262F99
:10062000408151816281738184810C94DB0281E07D
:100630000895CF93DF93EC0160E00E940E03BE01AA
:10064000DF91CF910C94D9020E9436120E9495033B
:100650000C9470120C946C1208950E94B3070E94BF
:100660002C032FEF84E39CE0215080409040E1F781
:1006700000C000000C9495200F931F93CF93DF933D
:100680008C0161E00E940E03EC01B8010E94D602C9
:100690008823F1F1B801CE010E94EB1A8823C1F141
:1006A000B801CE010E943D1B882391F1B801CE0113
:1006B0000E94681C882361F1F8018281882309F176
:1006C000CB358DE5D807C1F050F4C115FCE5DF0747
:1006D00081F0CF3DDC45A9F40E94360F19C0CC351E
:1006E000EDE5DE0761F0CD35DD4559F40E94C00D22
:1006F00008C00E942D030CC00E94C90D02C00E94B8
:10070000CC0DC801DF91CF911F910F910C94D202B3
:1007100080E0DF91CF911F910F91089508950C947F
:100720008E0381E008950C9491030895CF93C82F10
:100730000E948F038C2F0E949303CF910895CF9333
:10074000DF93CDB7DEB72B970FB6F894DEBF0FBEA1
:10075000CDBF4F83588769877A878B8761110E9445
:10076000EF0D9E012F5F3F4F86E0F90111928A95B0
:10077000E9F785E0FE013796D90101900D928A953F
:10078000E1F789819A814C815D81452B31F09F3F52
:1007900031F491E08F3F19F403C091E001C090E083
:1007A00090FF09C049815A816B817C818D819E8136
:1007B0000E94EF0C05C0C9010E9417038111F2CFFE
:1007C0002B960FB6F894DEBF0FBECDBFDF91CF9151
:1007D0000895FC01808191810E94AD090895CF9315
:1007E000882309F4A9C0C82F8238C1F40E94BE1E14
:1007F00081FDA2C069E380910001909101010E94F6
:10080000581F0E94210E2FEF81EE94E0215080406E
:100810009040E1F700C0000069E319C0833801F59A
:100820000E94BE1E80FD88C063E58091000190910A
:1008300001010E94581F0E94210E2FEF81EE94E0CB
:10084000215080409040E1F700C0000063E58091B6
:100850000001909101010E945A1FCF910C94210E2A
:100860008438C1F40E94BE1E82FD66C067E4809198
:100870000001909101010E94581F0E94210E2FEF4C
:1008800081EE94E0215080409040E1F700C00000EC
:1008900067E4DDCF8CEF8C0F813AF8F48C2F0E9447
:1008A0008417811149C06C2F809100019091010142
:1008B0000E94221F882349F06C2F809100019091A3
:1008C00001010E945A1F0E94210E6C2F809100018D
:1008D000909101010E94581FC0CF80E28C0F883098
:1008E00048F4C77081E001C0880FCA95EAF70E94FA
:1008F000D20DB3CFEBE5EC0FE33040F4F0E0E05A7B
:10090000FE4F808190E0CF910C94EA1EE8E5EC0F59
:10091000E73150F4F0E0EE0FFF1FEE5CFE4F8081F8
:100920009181CF910C94001FCD3E30F08C2F0E940E
:100930004F18CF910C942119CF910895882309F471
:1009400064C0823879F40E94BE1E81FF5EC069E3F4
:1009500080910001909101010E94581F0E94210E78
:1009600069E310C08338B1F40E94BE1E80FF4DC001
:1009700063E580910001909101010E94581F0E943F
:10098000210E63E580910001909101010E945A1FA0
:100990000C94210E843879F40E94BE1E82FF35C06B
:1009A00067E480910001909101010E94581F0E940C
:1009B000210E67E4E7CF9CEF980F913A10F4682F6F
:1009C000E1CF90E2980F983050F4877091E001C029
:1009D000990F8A95EAF7892F0E94D80DD9CF9BE508
:1009E000980F933020F480E090E00C94EA1E98E594
:1009F000980F973120F480E090E00C94001F8D3E1A
:100A000020F00E94AA180C94211908951F93CF93E7
:100A1000DF93182FEB010E94EF03209741F08FE93D
:100A20009FE00197F1F700C000002197F6CF812FDA
:100A3000DF91CF911F910C949E04893319F060E0EF
:100A400070E002C060E570E00C940605882321F098
:100A50000E94D20D0C94210E0895882321F00E944B
:100A6000D80D0C94210E0895CF92DF92EF92FF9251
:100A70000F931F93CF93DF937C01062FC72FFC01A9
:100A8000D281158112951F700E94A70D882399F0BD
:100A9000DD2389F08C2F807F803421F080E2800F6D
:100AA000883048F082E00E94710E0E94A70D91E00C
:100AB000D82ED92601C0D12CCC2EC2948FE0C822CA
:100AC0008C2D90E0FC01EA5AFF4F0C9482278C2F6A
:100AD000807FCF70882311F0C295C07FDD2399F00D
:100AE000CC2309F48DC180E2800F883010F0011111
:100AF00004C08C2F0E94D20D03C08C2F0E94E20DE7
:100B00000E94210E7DC1802F0E949E04CC2309F4F7
:100B10009CC180E2800F883010F0011104C08C2F3E
:100B20000E94D80D03C08C2F0E94E80D0E94210E58
:100B30008CC18C2F807FCF70803211F0C295C07F26
:100B4000002319F00130C9F022C0DD2371F0112318
:100B500041F0113031F40E94020E8C2B0E940A0EDB
:100B600074C10E94020E8C2B1DC0112319F011308C
:100B700009F46BC10E94170E25C0DD2321F0163049
:100B800008F063C10EC0153008F05FC11BC0DD2343
:100B900061F0112331F0F701858180FF31C18F7041
:100BA00085838C2F0E94260550C1112359F00933EB
:100BB00009F037C1FFEF27EE83E0F150204080407D
:100BC000E1F72DC18C2F0E942D053FC18C2F8695FA
:100BD0008695837019F0813061F037C1DD2321F0F3
:100BE000802F9C2F937002C080E090E00E94EA1E4C
:100BF00034C1DD2321F0802F9C2F937002C080E050
:100C000090E00E94001F29C1802FDD2319F00E946F
:100C10004F1802C00E94AA180E9421191EC18C2FD1
:100C2000837009F045C0D11114C1402F42954695FB
:100C30004770440F440F602F6F70862F90E0A0E044
:100C4000B0E0042E04C0880F991FAA1FBB1F0A948E
:100C5000D2F704FF10C00FE010E020E030E004C045
:100C6000000F111F221F331F4A95D2F700951095D0
:100C70002095309503C000E010E09801C695C69518
:100C8000C370BC01CD01602B712B822B932BC23022
:100C900049F058F4C13019F00E942808DAC00E94C7
:100CA0001608D7C00E943A08D4C00E941408D1C0C8
:100CB000DD2319F08C2F817001C08695882309F4FB
:100CC000C8C0402F429546954770440F440F602F8F
:100CD0006F70862F90E0A0E0B0E0042E04C0880F73
:100CE000991FAA1FBB1F0A94D2F704FF10C00FE080
:100CF00010E020E030E004C0000F111F221F331F5E
:100D00004A95D2F7009510952095309503C000E0E4
:100D100010E09801C695C695C370BC01CD01602B4B
:100D2000712B822B932BC23049F058F4C13019F04B
:100D30000E94ED088EC00E94DB088BC00E94FF0855
:100D400088C00E944E0885C0CF70DD2339F08C2FFB
:100D50000E947408802F0E9426057BC0802F0E946D
:100D60002D058C2F0E94950874C0023F01F128F4D4
:100D7000003F41F0013FA1F03FC0033FF9F0043FC5
:100D800039F13AC0DD2341F0153008F05EC08C2FF8
:100D90008F710E94BA0859C0163008F056C0F7CFBC
:100DA000DD2339F08C2F8F710E9474084EC0DD2333
:100DB000C9F38C2F8F710E94950847C0DD2329F05D
:100DC0008C2F8F710E945F0840C00E945A083DC05E
:100DD000DD2349F0CF718C2F0E94740863E08C2FC3
:100DE0000E94560E32C081E00E94710E123068F1EE
:100DF00082E00E94710E29C0DD2331F0112391F2AF
:100E0000802F0E94EF0321C0112399F2093349F486
:100E10009FEFE7EEF3E09150E040F040E1F700C0D3
:100E20000000802F0E949E0410C04C2F4F70602F36
:100E3000C7010E941C100E94DB090FC04C2F4F708D
:100E4000602FC7010E941F1008C088EF8C0D8430EE
:100E500020F40E94BE1E0E949603DD20C9F00E946D
:100E6000A30D80FD15C0F70112820E949D0D0E9406
:100E70007408C7010E9469070E949D0DDF91CF9100
:100E80001F910F91FF90EF90DF90CF900C949508F9
:100E9000DF91CF911F910F91FF90EF90DF90CF9056
:100EA00008950F931F93CF93DF93EC0168817981AD
:100EB0008A810E94B8098C010E9411090E940208CF
:100EC000B801CE010E943405DF91CF911F910F919F
:100ED0000895CF93DF93EC01988189812B813C8128
:100EE000232B31F08F3F31F481E09F3F19F403C091
:100EF00081E001C080E080FD19C0CE010E943C036A
:100F000081110CC00E94A70D882381F08A8188235B
:100F100069F082E0DF91CF910C94710ECE010E94B6
:100F20005107CE01DF91CF910C941903DF91CF913E
:100F3000089580E090E00E94EA1E80E090E00E9428
:100F4000001F0E94EF0D0E94FF0D0E94210E0E94C3
:100F5000521A0C94211980910001909101010E9474
:100F60005C1F0C9499070E94DF0D0C94AB07E92FCE
:100F7000E295EF704E2F50E0FA013297EE30F10516
:100F8000B0F4EA59FF4F0C948227803F91F018F497
:100F9000883E68F40EC0843F51F40BC0883E48F090
:100FA000813F29F406C093FB882780F9089580E0EB
:100FB000089581E00895FC01808191810E94AD092E
:100FC0000E94B7070895CF93DF9300D000D01F92FF
:100FD000CDB7DEB70F900F900F900F900F90DF916D
:100FE000CF910895CF93DF9300D000D000D0CDB73C
:100FF000DEB726960FB6F894DEBF0FBECDBFDF91E9
:10100000CF910895089508950C9403080C94040852
:101010000E9406086093D0017093D1018093D201A1
:101020009093D3010C9499070C9408080F931F9385
:101030000091D0011091D1012091D2013091D301C2
:10104000602B712B822B932B1F910F910C9408080E
:101050000F931F930091D0011091D1012091D201E3
:101060003091D30160237123822393231F910F9129
:101070000C9408080F931F930091D0011091D10197
:101080002091D2013091D3016027712782279327C5
:101090001F910F910C9408080C9403080E944C08AF
:1010A0006093CC017093CD018093CE019093CF01DA
:1010B0000C94990760E070E0CB010C944E080F93FC
:1010C0001F9341E050E060E070E08A019B0104C0A2
:1010D000000F111F221F331F8A95D2F7C901B801D3
:1010E0001F910F910C944E080F931F9341E050E015
:1010F00060E070E004C0440F551F661F771F8A959B
:10110000D2F78091CC019091CD01A091CE01B09108
:10111000CF018A019B01082B192B2A2B3B2BC901DC
:10112000B8011F910F910C944E080F931F9341E04B
:1011300050E060E070E004C0440F551F661F771F49
:101140008A95D2F740955095609570958091CC0125
:101150009091CD01A091CE01B091CF018A019B0168
:10116000082319232A233B23C901B8011F910F919A
:101170000C944E080F931F9341E050E060E070E044
:1011800004C0440F551F661F771F8A95D2F78091C0
:10119000CC019091CD01A091CE01B091CF018A01F7
:1011A0009B01082719272A273B27C901B8011F914E
:1011B0000F910C944E080F931F930091CC01109146
:1011C000CD012091CE013091CF01602B712B822B6C
:1011D000932B1F910F910C944E080F931F93009126
:1011E000CC011091CD012091CE013091CF0160232F
:1011F0007123822393231F910F910C944E080F9318
:101200001F930091CC011091CD012091CE0130911E
:10121000CF0160277127822793271F910F910C948C
:101220004E08089524E0929F900D1124890FE82F15
:10123000E695E695E695877051E001C0550F8A95D1
:10124000EAF785E0E89FF0011124E755FE4F20E022
:1012500030E070E04081CB01022E02C09695879568
:101260000A94E2F7817081958427852384278193EE
:101270002F5F3F4F2530310569F7089524E0929F95
:10128000900D1124890F682F669566956695982FA5
:10129000977085E0689FB001112440E050E080E045
:1012A000FB01E40FF51FE755FE4F208130E0092ECA
:1012B00002C0369527950A94E2F721703327042E51
:1012C00001C0220F0A94EAF7822B4F5F5F4F45302F
:1012D000510531F70895BF92CF92DF92EF92FF92BE
:1012E0000F931F93CF93DF938C01C090CC01D090CC
:1012F000CD01E090CE01F090CF018091D00190918E
:10130000D101A091D201B091D301C82AD92AEA2AE9
:10131000FB2ACFE1D0E0D701C6010C2E04C0B69560
:10132000A795979587950A94D2F780FD04C02197D9
:1013300090F7B12C07C0BC2EB8018C2F0E9457111A
:101340000197A9F38B2DDF91CF911F910F91FF9002
:10135000EF90DF90CF90BF900895CF93DF93EC0193
:101360000E946B09BE010E945711DF91CF91089531
:101370001F93CF93DF93EB019091A801992321F064
:10138000CB010E94AD0913C0882349F0CB010E9414
:101390006B09182F682FCE010E94120904C0CB01DF
:1013A0000E943E09182FBE01812F0E945711DF9124
:1013B000CF911F910895EF92FF920F931F93CF93B8
:1013C000DF938C01892B09F46CC0F12CEE24E3949B
:1013D000E8012196F8018491843740F4843008F0C4
:1013E00051C0813081F0823019F15BC0853709F43A
:1013F00044C0A8F19CE7980F903708F052C08F774F
:101400000E949E0441C00E5F1F4FFE01849190E236
:10141000980F983050F48770FE2D01C0FF0F8A9509
:10142000EAF78F2F0E94F20D14C00E94EF032DC027
:101430000E5F1F4FFE01849190E2980F983060F488
:101440008770FE2D01C0FF0F8A95EAF78F2F0E944B
:10145000F80D0E94210E19C00E949E0416C00E5F56
:101460001F4FFE01C491CC2381F08FE99FE00197CB
:10147000F1F700C00000C150F6CF0E5F1F4FFE0114
:10148000F49003C00E94EF038E018F2D882309F48E
:101490009FCFEFE9FFE03197F1F700C000008150E6
:1014A000F5CFDF91CF911F910F91FF90EF900895AD
:1014B0001F93CF93DF93C091D40116E08091D501A3
:1014C000C81799F0D0E01C9FF0011D9FF00D11246A
:1014D000EA52FE4F408151816281738184819581FE
:1014E0000E94F2072196C770E9CFDF91CF911F913B
:1014F0000895409106025091070260910802709190
:10150000090280910A0290910B020C94F20720913B
:10151000D4019091D50156E02917A9F030E0529FEF
:10152000F001539FF00D1124EA52FE4F71817613A2
:1015300006C07081781303C07281741306C02F5FD8
:101540003F4F2770E9CF80E0089581E008950F9321
:101550001F93CF93DF9380910B0282958F7009F0D8
:101560005DC080910802882309F458C08091D4019D
:101570001091D5016091060270910702C091090295
:10158000D0910A0291E06F3F09F090E0292F06E028
:10159000811709F443C0209721F07F3F21F030E00C
:1015A00003C031E001C0322F90E030FD34C0089F0D
:1015B000F001099FF00D1124DF01AA52BE4F1196D0
:1015C0003C911197371327C03C91361324C01296D3
:1015D0003C91129731111FC013964D915C91149755
:1015E0004C1B5D0B483C5105B0F480910B028F7091
:1015F000806180930B02E552FE4F80818F70806185
:10160000808386E092E00E946907DF91CF911F916D
:101610000F910C94580A01968770BACFDF91CF9141
:101620001F910F9108958F929F92AF92BF92CF9288
:10163000DF92EF92FF920F931F93CF93DF93CDB77B
:10164000DEB761970FB6F894DEBF0FBECDBF8C0139
:1016500085E0F801DE011D9601900D928A95E1F773
:10166000D8011296EC9090910602209107024091C9
:10167000090250910A024115510531F02F3F31F412
:1016800081E09F3F19F403C081E001C080E080FD4C
:1016900078C1F801C080D1808380948086E0A82E34
:1016A00082E0B82EF0900802B401641B750BFF2095
:1016B00009F411C180910B02382F307F683C71050D
:1016C00008F0CBC031118AC0D21214C0C91212C0A6
:1016D000FE2CE1100FC08F70806180930B020E947E
:1016E000790AC5010E94690780910B02D8011596FD
:1016F0008C9361C18114910439F0BFEFDB1206C0F5
:1017000081E0CB1203C003C081E001C080E080FD16
:1017100003C081E08E2502C080E090E080FF10C011
:101720004E2D6D2D8C2D0E94870A882349F086E06E
:1017300092E00E946907E6E0F2E086E0DF019DC0EA
:10174000892839F0BFEFDB1206C081E0CB1203C05D
:1017500003C081E001C080E080FD03C081E08E25F0
:1017600002C080E090E0E82FE170BE2E80FF2CC028
:101770004E2D6D2D8C2D0E94870AF82E811124C0CC
:10178000CD86DE868D859E850E94AD09292F229506
:101790002F70223018F0243090F405C09F7059F05B
:1017A000811109C008C19F7031F0D80115969C9134
:1017B000907F09F400C1805E883008F4FCC0C80145
:1017C0000E946907FB2CF7C0FE2CEE2009F4F3C041
:1017D00080910B02816080930B0254C0D21206C02C
:1017E000C91204C0E11002C0F80199C0C8010E94EA
:1017F000DB07882361F1EE2051F120910B02822F4B
:1018000082958F7090E0029774F08091060290911B
:10181000070298878F8319869B868A862C87CE013C
:1018200007960E94690786E0F801A6E0B2E0019001
:101830000D928A95E1F70E94A70A0E94790A0AC0D0
:10184000D21611F1C8010E94DB0781112CC0C8011A
:101850000E946907FF24F394AEC03111F1CF782DB7
:10186000998A888AA6016E2D89890E94E30786E0FD
:1018700092E00E94690786E0D5011D928A95E9F7FA
:101880000E94790AF12C97C0C912DCCFE110DACF9F
:10189000F8018583C8010E94690786E0D5011D9281
:1018A0008A95E9F788C0EE2091F220910B02822FF1
:1018B00082958F7090E002970CF4B5CF809106026C
:1018C000909107029A8389831B829D828C822E834A
:1018D000CE010196A6CF683C710508F044C0FE2CED
:1018E000EE2009F4B4CFD21230C0C9122EC020911C
:1018F0000B0220FD21C0822F82958F70482F50E06F
:1019000041155105C9F0F80125834F30510541F0CB
:101910008F5F982F9295907F822F8F70892B858370
:10192000C8010E94690786E0F801A6E0B2E00190D4
:101930000D928A95E1F73DC086E0F801A6E0B2E09D
:1019400001900D928A95E1F736C0C8010E94DB072D
:10195000811169CF80910B02816080930B02C801D5
:101960000E94690728C0782D998A888AA6016E2D61
:1019700089890E94E30786E0D5011D928A95E9F7DF
:1019800018C0EE2009F463CFC8010E94DB07F82ECF
:10199000882309F45CCF86E0F801A6E0B2E001906C
:1019A0000D928A95E1F786E092E00E94E9030E9499
:1019B000A70A0E94790A8F2D61960FB6F894DEBFB0
:1019C0000FBECDBFDF91CF911F910F91FF90EF9090
:1019D000DF90CF90BF90AF909F908F9008951F930E
:1019E000CF93DF93CDB7DEB72C970FB6F894DEBF59
:1019F0000FBECDBF4F83588769877A878B879C87B7
:101A0000CE0107960E94130B8823D1F09F81888511
:101A10002A853B85232B31F08F3F31F481E09F3FB6
:101A200019F403C081E001C080E080FD47C04F8110
:101A3000588569857A858B859C850E94F2073EC012
:101A400086E0FE013796DE01119601900D928A958F
:101A5000E1F7FF81E8856A857B856115710531F0C5
:101A6000EF3F31F481E0FF3F19F403C081E001C092
:101A700080E080FD23C02091D50130E0C9010196AE
:101A8000877099274091D40150E084179507F1F1B0
:101A9000F983EA837D836C8396E0929FD001939FC4
:101AA000B00D1124AA52BE4FFE01319601900D9245
:101AB0009A95E1F78093D5010E94580A16E080912B
:101AC000D4019091D501891771F1189FC00111249B
:101AD0008A529E4F0E94130B882329F1E091D40172
:101AE0001E9FF0011124EA52FE4F40815181628114
:101AF0007381848195810E94F2078091D40190E0E6
:101B00000196877099278093D401D9CF0E94B3079B
:101B10001092D5011092D401E6E0F2E086E0DF01F8
:101B20001D928A95E9F72C960FB6F894DEBF0FBE8A
:101B3000CDBFDF91CF911F91089580910C028595C3
:101B400085958595089580910C02877008959091F0
:101B50000C02977081E009F480E0089590917C0276
:101B600092FB222720F9281751F080FB92F99093DD
:101B70007C0280917B0290917C020C94B20E0895BD
:101B800080917C0282FB882780F991E089270C9460
:101B9000AE0D81E00C94AE0D80E00C94AE0D809102
:101BA0001802089590911802892B809318020895C5
:101BB00080959091180289238093180208951092BD
:101BC0001802089590911702892B809317020895A7
:101BD000809590911702892380931702089510929F
:101BE0001702089590911602892B8093160208958A
:101BF0008095909116028923809316020895109281
:101C00001602089580910D02089508950C94050E12
:101C10000C94060E90917C0292FD08C090910D02EA
:101C2000981721F080930D020C94080E089580916E
:101C30000D02882329F010920D0280E00C94080E0A
:101C40000895E0910001F0910101809118028083D4
:101C5000E0910001F0910101908180911702892BA0
:101C60008083E0910001F091010190818091160242
:101C7000892B808380910D02882381F0E0910001FF
:101C8000F09101019081892B8083809100019091D6
:101C900001010E94161F81110E94170E8091000100
:101CA000909101010C94D11E0C94050E90917C0230
:101CB00092FD10C098E0899F90011124262B20935B
:101CC0000C020E94740880910C028595859585957B
:101CD0000C94540E0C94740810920C0280E00C9436
:101CE000540E20910C028095822380930C02982F31
:101CF000977041F430E0482F082E000C550B241744
:101D0000350721F490917C0292FF07C08595859557
:101D100085950E9495080C946C0E089580E090E0E3
:101D20000E94BA2721E0893E9E4F09F020E0822FD1
:101D3000089582E090E00C94B22783E090E00C9448
:101D4000B227CF9384E090E00E94B227C82F82E2AE
:101D500090E00E94B2272C2F30E0A901582BCA0135
:101D6000CF910895CF93C92F682F84E090E00E940F
:101D7000C0276C2F82E290E0CF910C94C027AB017A
:101D8000BC018FE090E00C94D227AB01BC0183E151
:101D900090E00C94D22760E070E0CB010C94C50E6B
:101DA00060E070E0CB010E94BF0E0C94CB0E69EE98
:101DB0007EEF80E090E00E94DE2760E082E090E02D
:101DC0000E94C02760E083E090E00E94C02710924C
:101DD000D0011092D1011092D2011092D30160E093
:101DE00084E090E00E94C02760E082E290E00E94E0
:101DF000C02760E085E090E00E94C02760E086E0B8
:101E000090E00E94C0276FEF87E090E00E94C0271B
:101E100040E050E0BA0188E090E00E94D22760E004
:101E20008DE090E00E94C02740E050E0BA0188E1D8
:101E300090E00E94D22760E087E190E00E94C027F6
:101E400040E050E0BA018CE190E00E94D22760E0CF
:101E500070E080E290E00E94DE2740E050E0BA01AE
:101E600088E190E00E94D2270C94D00E0C94D70EFB
:101E7000682F8EE090E00C94C0270E943820609379
:101E800028027093290280932A0290932B02609378
:101E900024027093250280932602909327020895CE
:101EA00085B7806885BF85B7806885BF08950C9425
:101EB0001B1408950C94590F0C94590F0C945C0F3B
:101EC0000C94590F0C94600F0C94590F0E94500FF2
:101ED00083E392E10E94A6200E94640F0C94620F9B
:101EE0000E945A0F0C94590F0E9423200E94631FD6
:101EF0000E9416130E94601A0C945E0F9F92AF927C
:101F0000BF92CF92DF92EF92FF920F931F93CF93E6
:101F1000DF93CDB7DEB72A970FB6F894DEBF0FBEBA
:101F2000CDBF0E94901381110E943D0F8AE1A82E1F
:101F300082E0B82E00E010E0902E802F0E945A120E
:101F4000D82EF501C1905F01C826B1F40F5F1F4F75
:101F50000A30110589F78FEF89838A831B820E94DB
:101F60002C208160782F9D838C8349815A816B81DD
:101F70008D810E949F032FC080912C0281FD0E94C1
:101F80006012E12CFF24F3948C2D8F21F1F00E943C
:101F9000570F882399F0EE829F82DF2081E009F4B9
:101FA00080E088870E942C208160782F9A8789871B
:101FB0004E815F8168858A850E949F03F801E65EF5
:101FC000FD4F8081F826F08206C0E394FF0CF5E017
:101FD000EF12DACFBBCF0E943F190E94BE1E909134
:101FE00019028917B9F00E94BE1E809319022A9621
:101FF0000FB6F894DEBF0FBECDBFDF91CF911F911A
:102000000F91FF90EF90DF90CF90BF90AF909F9097
:102010000C9496032A960FB6F894DEBF0FBECDBF80
:10202000DF91CF911F910F91FF90EF90DF90CF90B4
:10203000BF90AF909F90089580E090E0089508953C
:1020400022E3829FC0011124FC0125E0729FE00D74
:10205000F11D1124E60FF11DEE0FFF1FE450FF4F9D
:10206000859194910895880F991FFC01E854FC4FC5
:10207000859194910895CF93DF930E945C11EC01B8
:10208000811520E5920708F03FC0811540E49407D0
:1020900008F0D2C0883E910500F5803E910508F019
:1020A00002C1883A910570F4853A910508F0A6C0FE
:1020B0008130910509F49FC008F4F2C0049708F03C
:1020C000F2C0EEC08F3B910508F4A1C0803C9105A1
:1020D00008F4E6C0805C9109A5C0811550E295071F
:1020E00060F4C11581E0D80708F0DDC0CD3ED10510
:1020F00008F4D6C0CE019065D7C0811520E39207C1
:1021000008F093C09F708EC0811545E5940708F0D4
:1021100046C0811554E5950708F0A6C0C11582E5B3
:10212000D80718F5C11521E5D20708F088C0CE01FF
:10213000F4E096958795FA95E1F7282F23703C2FC8
:10214000337081E090E002C0880F991F3A95E2F762
:102150009C68922B2C2F2F702695269540E2249F69
:1021600090011124822B932B9FC09E012370332753
:102170009C2F96959695C115D34508F065C041E012
:1021800050E002C0440F551F2A95E2F780E2989F65
:1021900090011124CA01822B932B9C6885C0811564
:1021A00059E5950798F4C11588E5D80708F061C08E
:1021B000C11526E5D20708F073C08C2F0E94F011DC
:1021C0008F7190E0982F882790626EC081154AE544
:1021D000940708F453C090568115904208F060C0EF
:1021E0008D2F8F710E94F0119E01332730628F7105
:1021F000A901582B53C081E090E056C0855AC82FE2
:10220000D0E0CF56DE4F888190E090644DC0885A70
:10221000C82FD0E0CC0FDD1FCD59DE4F88819981CA
:10222000946442C00E9433103FC09927D3FF02C07C
:10223000986C3AC0906C38C09F70906A35C09C2FE3
:102240008827816F906A30C041E050E002C0440F9F
:10225000551F2A95E2F780E2989F90011124CA0148
:10226000822B932B9A6820C0982F8827846F906ABE
:102270001BC09C2F8827806F906A16C08F700E94A9
:10228000F0119E0194E0369527959A95E1F72F700D
:1022900030E0322F22273069A901482BCA0104C03F
:1022A00080E090E001C0CE01DF91CF9108950E94BF
:1022B00020100E943B1008958238910569F1B0F416
:1022C0008133910509F46DC048F48932910509F410
:1022D00063C08A32910509F469C008958533910578
:1022E00009F455C089339105B9F00895833E9105ED
:1022F00069F138F4803E9105B1F0823E910509F113
:102300000895863E9105A9F1873E9105B9F1843E75
:10231000910509F064C023C020917B0220FD4FC0CD
:1023200021FD4DC0089580917B0280FD44C08091C5
:102330007C0280FF44C080917B0284FD42C083EE1A
:102340004DC080917B0282FF38C0F5CF80917B0227
:1023500082FD33C080917C0280FD31C0ECCF809142
:102360007C0281FF32C080917B0284FD2AC087EE0F
:1023700035C080917B0283FF26C0F5CF80917B0220
:1023800083FD21C080917C0281FD1FC0ECCF809134
:102390007B0285FD1CC01DC080917B0285FD19C09C
:1023A00016C080917B0286FD16C017C080917B020B
:1023B00086FD13C010C089E311C082EE0FC080EE0D
:1023C0000DC080E00BC086EE09C084EE07C089E234
:1023D00005C085E303C08AE201C081E390E008956F
:1023E00090917B0292FF0DC0282F2871283019F49C
:1023F000877F846006C0282F2471243011F48B7FDE
:10240000886093FF0DC0282F2871283119F4877E2A
:10241000846106C0282F2471243111F48B7E8861D9
:1024200020917C0220FF0DC0382F3871383019F40C
:10243000877F816006C0382F3171313011F48E7F73
:10244000886021FF0DC0282F2871283119F4877E5C
:10245000816106C0282F2171213111F48E7E88619F
:1024600094FD877E089580E0089508950E948E0E61
:10247000811102C00E94360F0E94990E80932C0297
:102480000E94A10E90937C0280937B020E943512E1
:102490000E949D0E682F70E080E090E00E9414087A
:1024A0006091CC017091CD018091CE019091CF01CE
:1024B0000C944C08E82FF0E0E957FD4F8081089517
:1024C000089580EA8A95F1F7089500C008950C9464
:1024D000611208950C9469120C946A120C9469129A
:1024E0000C946E12F894E82FE295EF70F0E031A1B1
:1024F000282F2F7081E090E001C0880F2A95EAF71D
:10250000982F9095932391A392A1892B82A37894DD
:10251000089508950C9489120F931F93CF93DF931E
:10252000C9E9D1E089918F3F11F00E94721281E0D8
:10253000CE39D807B9F7C4E9D1E009E911E08991AA
:102540008F3F11F00E9472120C171D07C1F7DF9127
:10255000CF911F910F910895CF92DF92EF92FF924A
:102560000F931F93CF93DF938C01C62FD0E0CE0142
:1025700087569E4F7C01FC0190819F3F09F44DC01E
:10258000D62EF894E92FE295EF70F0E081A19F70CC
:1025900021E030E001C0220F9A95EAF7822B81A357
:1025A00082A12095282322A378940E946512E4E951
:1025B000F1E020E030E0C12C51E041914F3FB1F01B
:1025C000A42FA295AF70B0E090968C9190E04F70E0
:1025D00002C0959587954A95E2F780FD07C0852F43
:1025E000022E01C0880F0A94EAF701C080E0C82AD1
:1025F0002F5F3F4F2530310501F7F70180818F3F75
:1026000011F00E94721261E0C11001C060E08D2DD6
:102610000E946712C00FD11FC882DF91CF911F9116
:102620000F91FF90EF90DF90CF9008950E943514A6
:102630008091020180910201811102C095E001C0E8
:1026400090E09093920285E0891B809391020E9412
:102650008C12EDE7F2E0A7E8B2E011921D9282E061
:10266000E738F807D1F785E00E94E4130E942403BD
:102670000C943F140F931F93CF93DF9300D000D09F
:102680001F92CDB7DEB70E941B146091920288237F
:1026900079F18E010F5F1F4F85E0F80111928A9545
:1026A000E9F7862F90E0B80189579D4F0E944D149D
:1026B000E09191029E012A5F3F4FF0E0E957FD4F04
:1026C000D801882361F010E08D919081981711F066
:1026D000808311E03196A217B307B1F706C01192BB
:1026E0001D92A217B307D9F711E00E942A030DC06B
:1026F00070E069577D4F8091910290E089579D4F1E
:102700000E94DD140E948A1210E0812F0F900F901A
:102710000F900F900F90DF91CF911F910F9108951F
:10272000EF92FF920F931F93CF93DF93CDB7DEB756
:102730002A970FB6F894DEBF0FBECDBF8E010F5F94
:102740001F4F8AE0F80111928A95E9F7F12C6F2D5D
:10275000C8010E94AC12F394F5E0FF12F8CF4AE0F2
:1027600050E0B8018DE792E00E949C277C0121E0B7
:10277000892B09F420E0E114F10441F08AE0F8012A
:10278000ADE7B2E001900D928A95E1F76091920277
:1027900070E069577D4F45E08DE792E00E94E513B8
:1027A000EF2819F40E943A1302C081E090E02A96C3
:1027B0000FB6F894DEBF0FBECDBFDF91CF911F9152
:1027C0000F91FF90EF9008950895FF920F931F933C
:1027D000CF93DF938C01F62ED72FC42F222349F0FD
:1027E00081E080932F020E942C2090932E028093F0
:1027F0002D0280912F028823C1F080912D029091AB
:102800002E020E944420059780F0EF2DFD2FD80165
:102810004C2F50E0CD01801B910B841795071CF4C1
:102820008D918193F7CF10922F02DF91CF911F915D
:102830000F91FF9008958091320281110DC00E9486
:102840006127811102C082E001C081E080933202E1
:10285000823011F40E945C2781E090913202913025
:1028600009F080E008950C941B140E9433148093A7
:1028700002010E941B1481110C94851408950E947A
:102880001B14811102C00C948714089581E090916B
:1028900033029A3008F080E008950F931F93CF938E
:1028A000DF93EC018B01809133028A3038F4B80158
:1028B000CE010E94DB1481111DC00AC0809130023C
:1028C000909131020E944420843F914080F715C0CE
:1028D000809133028F3F19F08F5F80933302809194
:1028E00033028A3060F00E942C2090933102809352
:1028F000300203C01092330202C080E001C081E0C8
:10290000DF91CF911F910F9108950C94F41C0C94BA
:10291000F71CEF92FF920F931F93CF93DF937901F0
:10292000C82F880FDD0B41155105A9F08AE08C9F57
:10293000F0018D9FF00D1124ED5FFE4F8381948196
:102940008C5C9D4F228130E04217530708F49A01B6
:10295000A9010E94A927CE010E94011E892B09F519
:102960000115110501F18AE08C9FF0018D9FF00D9A
:102970001124ED5FFE4F458150E00417150708F460
:10298000A8018AE08C9FF0018D9FF00D1124ED5F6E
:10299000FE4F668177816C5C7D4FC7010E94A9273D
:1029A00002C080E001C081E0DF91CF911F910F91C3
:1029B000FF90EF9008950C94F7150C9413160F9355
:1029C0001F93CF93DF9300D000D0CDB7DEB76091D7
:1029D0004B0270914C0280914D0290914E020E94E8
:1029E0005320643671058105910528F10E94891FE5
:1029F000DC01CB010296A11DB11D89839A83AB83B3
:102A0000BC8300E010E020E030E044E050E0BE0194
:102A10006F5F7F4F82E00E948914182F882361F036
:102A20000E94382060934B0270934C0280934D02B9
:102A300090934E0201C011E0812F0F900F900F90E4
:102A40000F90DF91CF911F910F910895AF92BF9298
:102A5000CF92DF92EF92FF920F931F93CF93DF936A
:102A60007C015B016A010E944614811103C001E0F0
:102A700010E002C00AE010E0C1E0D0E0F894B50137
:102A8000C701F60109957894811115C021960C179C
:102A90001D0794F0CC9F9001CD9F300D300D112477
:102AA00080E090E045E34A95F1F700000196821737
:102AB0009307C1F7E3CF81E0DF91CF911F910F9191
:102AC000FF90EF90DF90CF90BF90AF900895AF92BE
:102AD000BF92CF92DF92EF92FF920F931F93CF930B
:102AE000DF9300D000D000D0CDB7DEB77B01C0901F
:102AF000A301D090A40101E010E09E012A5F3F4FA6
:102B000040E050E060E070E080E00E948914182FFF
:102B1000882309F43EC056018FEFA81AB80A6091C5
:102B20004702709148028091490290914A020E94A6
:102B30005320643671058105910518F105E010E018
:102B40009E012F5F3F4F40E050E060E070E081E089
:102B50000E948914182F65E070E0C5010E94611A77
:102B600091E02E81281390E0192339F10E9438203A
:102B700060934702709348028093490290934A02FF
:102B800011C065E070E0C5010E94611A9E81891341
:102B9000D5CF85E0F6013196DE01119601900D92B8
:102BA0008A95E1F7112349F085E0FE013196A2E410
:102BB000B2E001900D928A95E1F785E0E2E4F2E05F
:102BC000D70101900D928A95E1F7812F26960FB6D5
:102BD000F894DEBF0FBECDBFDF91CF911F910F9153
:102BE000FF90EF90DF90CF90BF90AF9008950F933C
:102BF0001F93CF93DF93EC018B0147E655E10E94D1
:102C00002615882351F04FED54E1B801CE01DF9134
:102C1000CF911F910F910C94261580E0DF91CF91F9
:102C20001F910F9108950F931F93CF93DF93F89403
:102C3000C091A301D091A401CE01019625E0FB0132
:102C4000DC0101900D922A95E1F765E070E00E94A9
:102C5000611A88837894F8946E817F81888599853C
:102C600000913E0210913F022091400230914102BA
:102C7000601771078207930751F060933E027093CB
:102C80003F0280934002909341020E946C1F78940F
:102C9000DF91CF911F910F9108950E94A41F0E9470
:102CA00007220E9420220E9432220E94700FFBCF36
:102CB000893279F1E0F4843161F1A0F4873009F0D0
:102CC00075C01092540294E19093260180932501DF
:102CD0008CE38093240188E08093220188E2809332
:102CE000210164C092EE980F9A30F0F05FC08035F9
:102CF00009F444C028F48F3409F058C08AE03FC07A
:102D0000813529F0823509F051C081E038C08FEF5C
:102D100036C080915102882379F1109251021092AD
:102D2000500210924F0242C08D5180935102833065
:102D300099F038F4813069F08230D9F486E291E07C
:102D40000DC0853099F078F0863099F481E291E0F9
:102D500005C084E592E002C085E291E090935002C4
:102D600080934F0223C084E291E0F8CF82E291E0A9
:102D7000F5CF109251021AC080E0089586EFE091DD
:102D80004F02F0915002309789F02081082E000CFC
:102D9000990B820F911D8F3F910519F014F08FEF61
:102DA00004C097FF02C0108201C0808381E00895B3
:102DB0000F931F9341E050E060E070E08A019B01B7
:102DC00004C0000F111F221F331F8A95D2F7C901BB
:102DD000B8010E9414081F910F910C94B3078B3116
:102DE00009F468C058F58B3009F486C078F4863051
:102DF00009F445C020F4853009F44BC07FC087300A
:102E000009F44AC0883009F477C078C0803109F4E9
:102E100064C068F48E3009F071C080912C0282FB8E
:102E2000222720F991E0922790FB82F94CC086314D
:102E300009F462C0893109F45FC060C08A32E1F0F0
:102E400060F4873209F455C028F48E3108F456C076
:102E50008D5150C08932E9F051C0833450F48A3327
:102E600008F045C0853309F444C0883309F444C0F0
:102E700045C08334F1F142C00E94360F3DC08091BD
:102E80002C02817F8E7F80932C0281E080935202FE
:102E900008950E942D0330C080912C02982F9095A8
:102EA000917090FB80F980932C02911125C0897F4D
:102EB000877F10C080912C0281FB222720F991E0AE
:102EC000922790FB81F980932C029923A9F080919D
:102ED0002C02816080932C020FC080912C0283FB16
:102EE000222720F991E0922790FB83F9ECCF8953B8
:102EF00001C080E00E94D81681E0089580E0089526
:102F000080E008950C948017CF93C82F80915202CF
:102F1000813069F038F08230C1F58C2F0E9458164C
:102F200081E039C00E94CF0D823289F504C00E9431
:102F3000CF0D823261F48C2F0E948217811104C060
:102F40008C2F0E94EF161FC081E090E01CC08C2FD8
:102F50000E948017811116C0C43189F058F4CB301B
:102F600089F0C031B1F482E08093520288E30E947C
:102F7000581608C0C93219F0C83321F00AC010929F
:102F8000520207C081E0817006C01092520280E0B8
:102F900002C080E0F8CFCF91089580915B0280FF5E
:102FA0000BC06091250185E0689FB00111247595E3
:102FB0006795759567952BC081FF09C060912501C4
:102FC00085E0689FB00111247595679520C082FF48
:102FD00007C06091250185E0689FB001112417C0EA
:102FE00090915A029923D1F060912401961788F7A5
:102FF0002091250185E0289F90011124929FA00136
:10300000939F500D112470E0CA010E946E27603812
:10301000710540F46115710519F406C065E070E0B2
:10302000862F08958FE7089581E0089580915B02CF
:1030300080FF08C06091220170E0759567957595D5
:10304000679521C081FF06C06091220170E07595EF
:10305000679519C082FF04C06091220170E010C022
:1030600090915902992399F0609121019617A0F748
:1030700080912201899FC001112470E00E946E2777
:103080006038710540F46115710519F406C061E0FE
:1030900070E0862F08958FE7089581E008958D3EB2
:1030A00021F40E94CD17819504C08E3E29F40E9420
:1030B000CD1780935F0208958F3E21F40E94CD17B3
:1030C000819504C0803F29F40E94CD1780935E0251
:1030D0000895893F19F40E94161805C08A3F31F4FB
:1030E0000E94161881958093600208958B3F21F409
:1030F0000E941618819504C08C3F29F40E9416186E
:103100008093610208959FE0980F983078F421E051
:1031100030E0A90102C0440F551F9A95E2F7CA0199
:1031200090915D02892B80935D0208958D3F21F47B
:1031300080915B0281600BC08E3F21F480915B0225
:10314000826005C08F3F29F480915B028460809388
:103150005B0208958D3E39F490915F0297FF35C070
:1031600010925F0259C08E3E29F490915F021916A9
:10317000BCF32BC090915E028F3E29F497FF25C0CF
:1031800010925E0249C0803F19F41916CCF31DC09D
:1031900090916002893F29F41916BCF410926002E4
:1031A0003BC08A3F19F497FF10C0F8CF8B3F39F42A
:1031B0009091610297FF09C0109261022DC08C3F6F
:1031C00021F4909161021916BCF39FE0980F98309A
:1031D00080F421E030E0A90102C0440F551F9A9508
:1031E000E2F7CA01809590915D02892380935D0288
:1031F00013C08D3F21F480915B028E7F0BC08E3F08
:1032000021F480915B028D7F05C08F3F29F480916E
:103210005B028B7F80935B0280915E02811106C00E
:1032200080915F02811102C010925A028091600267
:10323000811106C080916102811102C01092590271
:1032400008950E942C2020915E02211104C020913B
:103250005F02222321F0909358028093570220911D
:103260006002211104C020916102222321F0909379
:103270005602809355028CE592E00C94DC1EEF928E
:10328000FF920F931F93CF93DF9300D000D000D015
:10329000CDB7DEB786E0ECE5F2E0DE0111960190F5
:1032A0000D928A95E1F7E0905E02F0905F02009146
:1032B00060021091610210925E0210925F02109201
:1032C000600210926102E11003C0FF2009F45DC0AA
:1032D00080915702909158020E944420AC01909135
:1032E0005A02992339F02091260130E0241735073E
:1032F00058F04BC0209154028AE0289F900111247D
:103300002417350718F041C09F3F19F09F5F909335
:103310005A02EE2061F00E94CD171E1414F09FEFA8
:1033200001C091E0989F902D112490935E02FF20A0
:1033300061F00E94CD171F1414F09FEF01C091E0BF
:10334000989F902D112490935F0230915E02332359
:10335000E1F020915F022223C1F045EB3403C0016C
:103360001124992319F090935E0203C081E08093A9
:103370005E0235EB2303C0011124992319F09093C9
:103380005F0203C081E080935F02011103C011233B
:1033900009F45DC080915502909156020E9444202C
:1033A000AC0190915902992339F02091230130E02A
:1033B0002417350758F04BC0209153028AE0289F0C
:1033C000900111242417350718F041C09F3F19F0D0
:1033D0009F5F90935902002361F00E941618101607
:1033E00014F09FEF01C091E0989F902D11249093CD
:1033F0006002112361F00E941618111614F09FEF5D
:1034000001C091E0989F902D11249093610230911A
:1034100060023323E1F0209161022223C1F045EBE9
:103420003403C0011124992319F09093600203C062
:1034300081E08093600235EB2303C00111249923BE
:1034400019F09093610203C081E080936102809142
:103450005E0281110BC080915F02811107C08091D3
:103460006002811103C08091610281110E942119C3
:10347000EB82FC820D831E8386E0FE013196ACE573
:10348000B2E001900D928A95E1F726960FB6F89476
:10349000DEBF0FBECDBFDF91CF911F910F91FF9087
:1034A000EF900895ECE5F2E086E0DF011D928A9549
:1034B000E9F710925A021092590210925B02089595
:1034C0000895FC01680F791F8FEF91E3E617F70766
:1034D00071F02191822728E030E087FF03C0880F38
:1034E000892701C0880F21503109B9F7EFCF08951E
:1034F0000F931F93CF93DF93C42FD22FFC018281B0
:103500008823C9F0409364020E942C2090936302A8
:103510008093620280E28C0F883008F057C0C77039
:1035200081E001C0880FCA95EAF7DF91CF911F9122
:103530000F910C94260580916402481330C080914D
:103540006202909163020E944420883C910538F504
:1035500010E21D0FCD17B9F080E28C0F883040F4D7
:10356000C77081E001C0880FCA95EAF70E942D0557
:10357000183028F581E09D2F977001C0880F9A952B
:10358000EAF70E942605802F0E941D051830F0F4EE
:10359000D77081E001C0880FDA95EAF70AC080E2AF
:1035A0008C0F883098F4C77081E001C0880FCA95ED
:1035B000EAF7DF91CF911F910F910C942D05802F89
:1035C000DF91CF911F910F910C941D05DF91CF9149
:1035D0001F910F9108950F939C01CB01243F4CE55F
:1035E000340731F188F4293DFCE53F07D9F02A3D45
:1035F0004CE5340779F1283D3C45A9F506E221EE7A
:1036000041EE68ED7CE52BC0263FFCE53F07E1F08D
:10361000A8F0273F3C4539F507E225EE46EE67EF77
:103620007CE51DC007E225EE45EE69ED7CE517C09F
:1036300006E221EE40EE64EF7CE511C007E225EEE4
:1036400044EE65EF7CE50BC006E221EE42EE66EF4C
:103650007CE505C008E221E045EE6AED7CE50E94CC
:10366000781A80E008C0FC018281882319F010924A
:10367000640201C081E00F910895CF93DF93EC01C4
:10368000FB018281882309F41FC1C230FCE5DF07FA
:1036900008F41BC1C6319CE5D90738F09E012B5FA9
:1036A0003C452930310508F010C10E94A10E9093CD
:1036B0007C0280937B02C031ECE5DE0709F4C3C0D5
:1036C00008F041C0C8308CE5D80709F49AC0F0F47E
:1036D000C430ECE5DE0709F487C068F4C2308CE53D
:1036E000D80709F477C0C330DC4509F0E3C0809106
:1036F0007B02826076C0C630ECE5DE0709F46EC05E
:1037000008F07BC080917B0288606BC0CC308CE578
:10371000D80709F485C068F4CA30ECE5DE0709F47F
:1037200074C008F079C00E94B30780917B02806862
:1037300058C0CE308CE5D80709F476C008F07FC0B9
:1037400080917B028BC0CC3FECE5DE0709F44FC0D3
:1037500018F5C3318CE5D80709F47DC078F4C13180
:10376000ECE5DE0709F473C0C231DC4509F0A2C004
:103770000E94B30780917B028F7733C0C5318CE5FF
:10378000D80709F472C008F486C0CB3FDC4509F0C5
:1037900091C080917C023EC0C115FDE5DF0709F4B0
:1037A0005FC058F4CE3F9CE5D90709F444C008F443
:1037B0003FC080917C0282602DC0C230FDE5DF07F2
:1037C00009F475C008F45DC0C330DD4509F072C06E
:1037D00080E06EC080917B02816003C080917B029B
:1037E000806180937B0266C080917B0211C08091D2
:1037F0007C02826080937C025DC080917B0280624B
:10380000F0CF80917B028064ECCF80917B02886056
:103810008460E7CF8160EECF80917B028E7FE1CF25
:1038200080917B028D7FDDCF80917B02877FD9CF16
:1038300080917C0218C080917C028D7FDBCF8091CB
:103840007B028F7ECECF80917B028F7DCACF80910D
:103850007B028F7BC6CF80917B02877F8B7FC1CF1E
:1038600080917C028D7F8E7FC5CF80917B0282FB11
:10387000222720F991E0922790FB82F990FB83F9AF
:10388000B0CF80917C02982F909591708E7F892B7C
:1038900090FB81F9AFCF0E94B30780917B0287FB39
:1038A000222720F991E0922790FB87F99ACF81E0B7
:1038B0000E94380F80917B0290917C020E94B20E90
:1038C0000E94B30780E001C081E0DF91CF910895AD
:1038D000CF93DF9386319C4541F5EB010E94CF0DDC
:1038E000982F8A812091000130910101882379F07D
:1038F0009A7A81E009F480E080936502911102C018
:1039000069E201C065E3C9010E94581F0AC08091A5
:103910006502811102C069E201C065E3C9010E942C
:103920005A1F0E94210E80E001C081E0DF91CF91FB
:1039300008958EE1489B02C08150E1F7489BFECF7D
:103940000895589880E28A95F1F7589A0895FC01F5
:103950002AE02A95F1F728E090E080E031E040E1AC
:103960004A95F1F7880F489B02C08160932700C0F9
:10397000000040E14A95F1F7215089F720E12A95AE
:10398000F1F729B100C0000030E13A95F1F721705C
:1039900092272081920F90830895EF92FF920F93C8
:1039A0001F93CF93DF931F92CDB7DEB719828C019F
:1039B0007C01E60EF11C0E151F0551F00E94991CAA
:1039C000CE0101960E94A71CF80181938F01F3CFCD
:1039D00081E09981911180E00F90DF91CF911F914B
:1039E0000F91FF90EF900895509A589A089550982B
:1039F000589AE89AE9E6F0E080818C7F8083089508
:103A0000615091E001C0990F6A95EAF720E031E03A
:103A1000992361F0492F482319F0589A232701C0B0
:103A2000589840E24A95F1F79695F2CF222311F08B
:103A3000589A01C0589880E28A95F1F758980895ED
:103A4000FF920F931F93CF93DF93EC018C01060F2E
:103A5000111DC017D10741F0F9900E94A11C68E028
:103A60008F2D0E94001DF5CFDF91CF911F910F91F7
:103A7000FF9008951F920F920FB60F921124EF92AC
:103A8000FF920F931F932F933F934F935F936F93E7
:103A90007F938F939F93AF93BF93EF93FF93CF93B6
:103AA000DF931F92CDB7DEB719820E94991CCE0119
:103AB00001960E94A71CA82FA695A695A6959A2FB9
:103AC000969595702A2F2570920F292F2370969521
:103AD0009695920F877089137CC08981811179C076
:103AE000A43008F076C080E18A95F1F7589A509A90
:103AF000B2E0BA95F1F700C05898EA2EF12CEAE04E
:103B0000AE9FD0011124AD5FBE4F1896ED91FC9190
:103B100019973097B1F06091A3017091A4011696A6
:103B20002D913C911797260F371F13968D919C91DD
:103B30001497680F791F15964C91159712968C91D2
:103B400009958AE08E9DF0018F9DF00D1124ED5FA7
:103B5000FE4F6581662351F08091A3019091A401ED
:103B600026813781820F931F0E94201D0E94A11C75
:103B7000F0E1FA95F1F758985098589A80E18A95B3
:103B8000F1F78AE08E9D80018F9D100D11240D5F4D
:103B90001E4FD80112966C911297662399F080916E
:103BA000A3019091A40113962D913C911497820F3B
:103BB000931F0E94CD1CD801ED91FC91811105C08D
:103BC00082E004C0D801ED91FC9188E080830E94DE
:103BD000991C0F90DF91CF91FF91EF91BF91AF9121
:103BE0009F918F917F916F915F914F913F912F9115
:103BF0001F910F91FF90EF900F900FBE0F901F90AD
:103C000018950F931F93CF93DF93843091050CF099
:103C1000A9C02AE0289FF001299FF00D1124ED5F33
:103C2000FE4F20813181232B09F49CC0EC01F894D4
:103C3000509A589885E08A95F1F700008C2F869568
:103C400085709C2F9570890F982F93708695869517
:103C50008E0123E0000F111F2A95E1F7890F082B31
:103C60000E94A11CA4E0AA95F1F700C068E0802F93
:103C70000E94001DB0E1BA95F1F75098589A489902
:103C800002C000C0FCCF87E090E0489B17C00197BE
:103C900099F4509A589A8AE08C9FF0018D9FF00D0C
:103CA0001124ED5FFE4F0190F081E02D81E08083D3
:103CB000789481E090E058C000C0E7CF8AE08C9F04
:103CC00080018D9F100D11240D5F1E4FF80165813D
:103CD0006623B9F08091A3019091A40126813781D8
:103CE000820F931F0E94CD1C81110BC0509A589ACD
:103CF000D801ED91FC9182E08083789482E090E09D
:103D000033C00E94991CB0E2BA95F1F75898509AC6
:103D1000E0E1EA95F1F78AE08C9FF0018D9FF00DCC
:103D20001124ED5FFE4F6281662351F08091A30163
:103D30009091A40123813481820F931F0E94201D42
:103D40000E94A11C8AE08C9FF0018D9FF00D112430
:103D5000ED5FFE4F0190F081E02D1082789480E0BD
:103D600090E002C084E090E0DF91CF911F910F912D
:103D7000089590936C0280936B0208950E941B1427
:103D8000811103C0809166020895E0916B02F09169
:103D90006C02309721F00190F081E02D099480E0D1
:103DA0000895E0916B02F0916C02309721F002804F
:103DB000F381E02D09940895E0916B02F0916C027B
:103DC000309739F022E0DC012C930480F581E02D5E
:103DD000099408952091690230916A0228173907E1
:103DE00071F090936A0280936902E0916B02F09106
:103DF0006C02309721F00680F781E02D0994089538
:103E000020916702309168022817390771F090936A
:103E1000680280936702E0916B02F0916C02309728
:103E200021F00084F185E02D09940895FC0132967B
:103E300097E080E0915029F021912223D9F38F5F00
:103E4000F9CF0895662349F0FC0132960896219136
:103E5000621729F0E817F907D1F780E0089581E0AB
:103E600008959C01FC0132969FEF80E04191461736
:103E700089F09F3F19F4411101C0982F8F5F863060
:103E8000A9F79F3F39F0F901E90FF11D97FDFA9568
:103E90006283089508959C012A5F3F4FFC0142818F
:103EA000461301C01282019682179307B9F708954D
:103EB0000C94311F0C944B1F029626E0FC011192CA
:103EC0002A95E9F7089510929402109295021092A3
:103ED0009602109297020895CF92DF92EF92FF928E
:103EE0006B017C010E941B1481110EC00E943820BE
:103EF000C61AD70AE80AF90AC0929402D09295022B
:103F0000E0929602F0929702FF90EF90DF90CF90B0
:103F100008950F931F930E941B14882321F01F9173
:103F20000F910C9438200E94382000919402109137
:103F300095022091960230919702600F711F821FA7
:103F4000931F1F910F910895089508950C94A51F34
:103F50000C94A51FCF930E94A81F0E9490130E944B
:103F6000A61FC0E08C2F0E945A12811104C0CF5F9F
:103F7000CA30C1F701C081E0CF9108950C94A51F0C
:103F80000C94BE1F8091A002843049F10E94C01F92
:103F900080E00E94960310926D0220E488E190E098
:103FA0000FB6F894A895809360000FBE2093600030
:103FB00083B7817F846083BF83B7816083BF789438
:103FC000889583B78E7F83BF0FB6F894A8958091AC
:103FD0006000886180936000109260000FBE0895B9
:103FE0000C94A51F0E94B3070E94BE1E0E94960358
:103FF0000C94F01F1F920F920FB60F9211248F9303
:104000009F93AF93BF9380916D02811113C08091F4
:10401000980290919902A0919A02B0919B024196C8
:10402000A11DB11D8093980290939902A0939A02CA
:10403000B0939B02BF91AF919F918F910F900FBE54
:104040000F901F90189582E084BD93E095BD9AEF84
:1040500097BD80936E0008952FB7F89480919802D1
:1040600090919902A0919A02B0919B022FBF08955E
:104070002FB7F894609198027091990280919A02FA
:1040800090919B022FBF08959C014FB7F8948091A7
:10409000980290919902A0919A02B0919B024FBF11
:1040A000821B930B0895CF92DF92EF92FF922FB76E
:1040B000F894C0909802D0909902E0909A02F09003
:1040C0009B022FBFA7019601261B370B480B590BEC
:1040D000CA01B901FF90EF90DF90CF9008957894D6
:1040E0001F920F920FB60F9211248F939F93AF934D
:1040F000BF938091980290919902A0919A02B091F9
:104100009B020196A11DB11D809398029093990284
:10411000A0939A02B0939B02BF91AF919F918F9110
:104120000F900FBE0F901F90189587E797E7909319
:104130000108809300089AE088E10FB6F894A895EA
:10414000809360000FBE90936000FFCF9093A70113
:104150008093A60108958091790208959091A0021C
:10416000943031F580936E027093700260936F0209
:1041700082E08093E9008FEF9091E800815095FDF7
:1041800006C095ED9A95F1F700008111F5CF809169
:10419000E80085FF0DC040E050E063E070E08EE68F
:1041A00092E00E94BE228091E8008E778093E80022
:1041B0000895BC0184E00C94AE20BC0183E00C9413
:1041C000AE2022E02093E9002FEF3091E80021504B
:1041D00035FD06C035ED3A95F1F700002111F5CF18
:1041E0002091E80025FF0BC040E050E066E070E061
:1041F0000E94BE228091E8008E778093E8000895A7
:10420000CF93DF9321E02093E9002FEF3091E80076
:10421000215035FD06C035ED3A95F1F7000021112A
:10422000F5CF2091E80025FF14C0EC0140E050E0FC
:1042300068E070E00E94BE228091E8008E77809353
:10424000E80088E0FE01A1E7B2E001900D928A95B6
:10425000E1F7DF91CF91089580919F02811109C00C
:104260000E944F240E94AC248091E20084608093DD
:10427000E200089510929F02089508950895089508
:1042800042E061EC81E00E94C82342E261EC82E0FE
:104290000C94C8238091A202833009F460C030F4EA
:1042A000813071F0823009F499C008958A3009F4A0
:1042B00085C08B3009F46BC0893009F0A7C020C0DD
:1042C0008091A102813A09F0A1C08091E800877F26
:1042D0008093E8008091A5029091A602892B21F499
:1042E00068E081E792E003C060E080E090E070E089
:1042F0000E9409238091E8008B778093E80008955D
:104300008091A102813209F081C08091A502909133
:10431000A602029708F07AC08091E800877F809318
:10432000E8008091E80082FD05C08091A002811123
:10433000F8CF6CC02091F3008091F20090E0922BB6
:10434000029729F48091F1008B7F813021F48091D4
:10435000F100809379028091E8008B7753C08091BF
:10436000A102813A09F052C08091A5029091A60263
:10437000892B09F04BC08091E800877F8093E8008B
:104380008091E80080FFFCCF8091310136C08091A0
:10439000A1028132D9F58091A5029091A602892BC4
:1043A000A9F58091E800877F8093E8000E94FD23B3
:1043B0008091A302809331010C94B3078091A102F4
:1043C000813221F58091E800877F8093E8000E9488
:1043D000FD238091A40280937A0208958091A10226
:1043E000813AA1F48091E800877F8093E800809172
:1043F000E80080FFFCCF80917A028093F1008091E9
:10440000E8008E778093E8000C94FD23089584B72C
:10441000877F84BF0FB6F894A8958091600088616B
:1044200080936000109260000FBE90E080E80FB6AD
:10443000F89480936100909361000FBE0C94660F16
:104440000E944F240E94AC24E2EEF0E08081846060
:10445000808378940E9441270E94740F87E291E044
:104460000C94B91E8091A0028530A9F48091A0021D
:10447000853079F40E94C21F80919E028823B1F397
:104480000E94AA1F882391F30E94A8220E94B307CA
:10449000EDCF0E94F21F0C947E0F0C944F22292F17
:1044A000332723303105C9F060F42130310581F024
:1044B0002230310509F044C08BE390E02AE034E07B
:1044C00043C021323105E1F02232310549F138C0D3
:1044D00082E190E025E434E037C0992781309105EE
:1044E00049F028F0029761F5E8EBF3E005C0E6E05B
:1044F000F4E002C0E6EFF3E0849190E09F0124C075
:104500006115710541F061307105D1F489E090E0E9
:1045100025E334E019C089E090E02CE134E014C0D8
:104520006115710541F06130710551F48BE790E040
:1045300027E534E009C080E490E022ED34E004C0D7
:1045400080E090E020E030E0FA013183208308959C
:1045500080E189BD82E189BD09B400FEFDCF809173
:10456000D8008F7D8093D8008091E0008260809396
:10457000E0008091E00081FDFCCF0895CF92DF92B2
:10458000EF92FF920F931F93CF93DF93EC018B0178
:104590007A010E941C24811133C0E114F10439F026
:1045A000F70180819181081B190BC80FD91FC12CFD
:1045B000D12C0115110519F18091E80085FD16C077
:1045C0008091E8008E778093E800E114F10449F0CF
:1045D000F70180819181C80ED91ED182C08285E009
:1045E0000FC00E941C24882321F30AC08991809364
:1045F000F10001501109FFEFCF1ADF0ADACF80E096
:10460000DF91CF911F910F91FF90EF90DF90CF90AE
:1046100008952091A7023091A8022617370748F085
:104620006115710539F42091E8002E772093E80098
:1046300001C0B901FC0120E06115710579F180919B
:10464000A0028823F1F18530F1F18091E80083FD2B
:104650003CC08091E80082FD2EC08091E80080FF80
:10466000EBCF2091F3008091F20090E0922B611546
:10467000710551F08830910538F421912093F100B3
:10468000615071090196F3CF21E0089709F020E00D
:104690008091E8008E778093E800CECF2111CFCFB4
:1046A0000AC08091A002882361F0853061F080917A
:1046B000E80083FD0AC08091E80082FFF2CF80E02D
:1046C000089582E0089583E0089581E0089520919F
:1046D000A7023091A8022617370748F06115710527
:1046E00039F42091E8002E772093E80001C0B90149
:1046F000FC0120E06115710591F18091A0028823F1
:1047000009F440C0853009F43FC08091E80083FD82
:104710003DC08091E80082FD2FC08091E80080FFBD
:10472000E9CF2091F3008091F20090E0922B611587
:10473000710559F08830910540F424912093F100DF
:104740003196615071090196F2CF21E0089709F086
:1047500020E08091E8008E778093E800CBCF211194
:10476000CCCF0AC08091A002882361F0853061F02F
:104770008091E80083FD0AC08091E80082FFF2CFBB
:1047800080E0089582E0089583E0089581E008952F
:10479000982F973068F59093E900981739F0709149
:1047A000EC002091ED005091F00003C0242F762FF3
:1047B00050E021FD02C09F5FECCF3091EB003E7FC7
:1047C0003093EB003091ED003D7F3093ED00309160
:1047D000EB0031603093EB007093EC002093ED0020
:1047E0005093F0002091EE0027FDE5CF80E0089582
:1047F0008F708093E90081E008958091A10287FF86
:1048000011C08091E80082FD05C08091A002811155
:10481000F8CF11C08091E8008B770BC08091A00287
:10482000882349F08091E80080FFF8CF8091E8006C
:104830008E778093E80008952091E4003091E500A0
:1048400095E64091EC00842F817040FF23C0809159
:10485000E80080FD1DC08091A002882399F085307A
:1048600099F08091EB0085FD11C04091E4005091DA
:10487000E5002417350729F3915011F09A01E1CF93
:1048800084E0089582E0089583E0089581E008952A
:1048900080E008954091E80042FFDDCF08950E9436
:1048A000BD240E94C524E0EEF0E080818160808319
:1048B000E8EDF0E080818F77808319BCA7EDB0E050
:1048C0008C918E7F8C9380818F7E808310929F024B
:1048D00008950F931F93CF93DF930E94BD240E94EE
:1048E000C524C8EDD0E088818F778883888180686F
:1048F000888388818F7D888319BC1092A0021092D2
:104900009C0210929E0210929D0200EE10E0F801AF
:1049100080818B7F808388818160888342E060E032
:1049200080E00E94C823E1EEF0E080818E7F8083EA
:10493000E2EEF0E080818160808380818860808306
:10494000F80180818E7F8083888180618883DF91F8
:10495000CF911F910F910895E8EDF0E080818F7E57
:104960008083E7EDF0E080818160808384E082BF16
:1049700081E080939F020C946924E8EDF0E080814F
:104980008E7F80831092E20008951092DA001092D8
:10499000E10008951F920F920FB60F9211242F93EA
:1049A0003F934F935F936F937F938F939F93AF93B7
:1049B000BF93EF93FF938091E10082FF0BC0809142
:1049C000E20082FF07C08091E1008B7F8093E100CD
:1049D0000E9440278091DA0080FF1FC08091D8009C
:1049E00080FF1BC08091DA008E7F8093DA00809177
:1049F000D90080FF0DC080E189BD82E189BD09B485
:104A000000FEFDCF81E08093A0020E942C2105C012
:104A100019BC1092A0020E943A218091E10080FF0F
:104A200019C08091E20080FF15C08091E2008E7F66
:104A30008093E2008091E20080618093E2008091A7
:104A4000D80080628093D80019BC85E08093A002D2
:104A50000E943E218091E10084FF30C08091E200FD
:104A600084FF2CC080E189BD82E189BD09B400FECC
:104A7000FDCF8091D8008F7D8093D8008091E10098
:104A80008F7E8093E1008091E2008F7E8093E20030
:104A90008091E20081608093E20080919C028823F3
:104AA00011F084E007C08091E30087FD02C081E03F
:104AB00001C083E08093A0020E943F218091E10029
:104AC00083FF29C08091E20083FF25C08091E1002F
:104AD000877F8093E10082E08093A00210929C0285
:104AE0008091E1008E7F8093E1008091E2008E7FD3
:104AF0008093E2008091E20080618093E20042E0D6
:104B000060E080E00E94C8238091F000886080937C
:104B1000F0000E943D21FF91EF91BF91AF919F91D5
:104B20008F917F916F915F914F913F912F910F9056
:104B30000FBE0F901F9018951F920F920FB60F92F5
:104B400011242F933F934F935F936F937F938F9392
:104B50009F93AF93BF93CF93DF93EF93FF93C09156
:104B6000E900CF708091EC00D82FD17080FDD0E8A3
:104B70001092E9008091F000877F8093F000789494
:104B80000E94E0251092E9008091F00088608093F7
:104B9000F000CD2BCF70C093E900FF91EF91DF9132
:104BA000CF91BF91AF919F918F917F916F915F91C5
:104BB0004F913F912F910F900FBE0F901F9018951E
:104BC0001F93CF93DF93CDB7DEB7AA970FB6F894B4
:104BD000DEBF0FBECDBFE1EAF2E08091F10081932C
:104BE00022E0E93AF207C9F70E944A218091E800E1
:104BF00083FF2EC18091A1029091A202492F50E023
:104C00004A30510508F024C1FA01EC58FF4F0C94CA
:104C10008227803821F0823809F01AC108C08091BB
:104C20009D0290919E02992389F082600FC080912D
:104C3000A5028F70873008F00BC18093E900809146
:104C4000EB0085FB882780F91092E9009091E8003D
:104C5000977F9093E8008093F1001092F100D1C00B
:104C6000282F2D7F09F0F4C0882319F0823061F0DD
:104C7000EFC08091A302813009F0EAC0933009F0BF
:104C800080E080939E022EC08091A30281112AC0F1
:104C90008091A5028F702FEF280F263008F0D8C022
:104CA0008093E9002091EB0020FF1CC0933021F499
:104CB0008091EB00806214C09091EB009061909322
:104CC000EB0021E030E0A90102C0440F551F8A9596
:104CD000E2F74093EA001092EA008091EB008860CE
:104CE0008093EB001092E9008091E800877F809329
:104CF000E8000E94FD23ACC08111AAC01091A3025C
:104D00001F778091E3008078812B8093E30080916E
:104D1000E800877F8093E8000E94FD238091E800EF
:104D200080FFFCCF8091E30080688093E300111145
:104D300002C082E001C083E08093A00289C0805855
:104D4000823008F085C08091A3029091A4028C3D2E
:104D500053E0950779F583E08A838AE289834FB728
:104D6000F894DE01139620E03EE051E2E32FF0E0FC
:104D700050935700E49120FF03C0E295EF703F5F2E
:104D8000EF708E2F90E0EA3010F0C79601C0C09609
:104D90008D939D932F5F243149F74FBF8091E80099
:104DA000877F8093E8006AE270E0CE0101960E945E
:104DB000092316C06091A5027091A602AE014F5F53
:104DC0005F4F0E944D22BC01892B09F441C0909194
:104DD000E800977F9093E80089819A810E94672379
:104DE0008091E8008B778093E80032C0803881F5AD
:104DF0008091E800877F8093E80080919C028093F7
:104E0000F1008091E8008E7772CF811121C08091EE
:104E1000A3029091A40299270297D4F48091E8000C
:104E2000877F8093E8008091A30280939C020E9478
:104E3000FD2380919C02811106C08091E30087FDD3
:104E400002C081E001C084E08093A0020E94402162
:104E50008091E80083FF0AC08091E800877F8093FB
:104E6000E8008091EB0080628093EB00AA960FB679
:104E7000F894DEBF0FBECDBFDF91CF911F91089593
:104E80000895CF938091A0028823A1F0C091E900FA
:104E9000CF709091EC00892F817090FD80E8C82B35
:104EA0001092E9008091E80083FD0E94E025CF7018
:104EB000C093E900CF9108950E944F241092A00260
:104EC0000895E8EDF0E08081806180838AE18A9531
:104ED000F1F700C08091D9008170089597FB072EEB
:104EE00016F4009407D077FD09D00E94882707FCAC
:104EF00005D03EF4909581959F4F089570956195EA
:104F00007F4F0895EE0FFF1F0590F491E02D099457
:104F1000AA1BBB1B51E107C0AA1FBB1FA617B707DF
:104F200010F0A61BB70B881F991F5A95A9F78095FB
:104F30009095BC01CD010895FB01DC0104C08D9169
:104F40000190801921F441505040C8F7881B990BFB
:104F50000895FB01DC0102C001900D9241505040C8
:104F6000D8F70895F999FECF92BD81BDF89A992797
:104F700080B50895A8E1B0E042E050E00C94E62747
:104F8000262FF999FECF92BD81BDF89A019700B402
:104F9000021639F01FBA20BD0FB6F894FA9AF99AA2
:104FA0000FBE08950396272F0E94C1270E94C02795
:104FB000252F0E94C127242F0C94C1270196272F4B
:104FC0000E94C1270C94C027DC01CB01FC01F99998
:104FD000FECF06C0F2BDE1BDF89A319600B40D9245
:0C4FE00041505040B8F70895F894FFCFFE
:104FEC000E02019302000000010000000093020079
:104FFC000000050100000093020406000000000000
:10500C00002808643C0714AB200021E120DD20D9E6
:10501C002001E200E900EA00B500B600B700CD00BF
:10502C008301CC008A019201940121022302240203
:10503C002502260227022A02B300B4006F0070007A
:10504C00818283E200E900EA00B500B600B700CD2A
:10505C00008301CC008A01920194012102230224D5
:10506C00022502260227022A02B300B4006F007048
:10507C00008182836697C63435F7313332360000AF
:06508C00000000340200E8
:00000001FF
